{
  "_format": "hh-sol-artifact-1",
  "contractName": "BlockJuice",
  "sourceName": "contracts/BlockJuice.sol",
  "abi": [
    {
      "inputs": [
        {
          "internalType": "uint256",
          "name": "_platfromFee",
          "type": "uint256"
        },
        {
          "internalType": "address",
          "name": "chainlinkPriceFeedAddress",
          "type": "address"
        }
      ],
      "stateMutability": "nonpayable",
      "type": "constructor"
    },
    {
      "inputs": [],
      "name": "InvalidFunds",
      "type": "error"
    },
    {
      "inputs": [],
      "name": "InvalidProductID",
      "type": "error"
    },
    {
      "inputs": [],
      "name": "InvalidQuery",
      "type": "error"
    },
    {
      "inputs": [],
      "name": "UnauthorizedAccess",
      "type": "error"
    },
    {
      "anonymous": false,
      "inputs": [
        {
          "indexed": true,
          "internalType": "address",
          "name": "account",
          "type": "address"
        },
        {
          "indexed": true,
          "internalType": "address",
          "name": "operator",
          "type": "address"
        },
        {
          "indexed": false,
          "internalType": "bool",
          "name": "approved",
          "type": "bool"
        }
      ],
      "name": "ApprovalForAll",
      "type": "event"
    },
    {
      "anonymous": false,
      "inputs": [
        {
          "indexed": false,
          "internalType": "address",
          "name": "newAddress",
          "type": "address"
        }
      ],
      "name": "DataFeedAddressChanged",
      "type": "event"
    },
    {
      "anonymous": false,
      "inputs": [
        {
          "indexed": false,
          "internalType": "address",
          "name": "user",
          "type": "address"
        }
      ],
      "name": "FundsWithdrawn",
      "type": "event"
    },
    {
      "anonymous": false,
      "inputs": [
        {
          "indexed": false,
          "internalType": "address",
          "name": "newOwner",
          "type": "address"
        }
      ],
      "name": "OwnerChanged",
      "type": "event"
    },
    {
      "anonymous": false,
      "inputs": [
        {
          "indexed": false,
          "internalType": "uint256",
          "name": "productId",
          "type": "uint256"
        },
        {
          "indexed": false,
          "internalType": "uint256",
          "name": "amount",
          "type": "uint256"
        },
        {
          "indexed": false,
          "internalType": "address",
          "name": "buyer",
          "type": "address"
        }
      ],
      "name": "ProductBought",
      "type": "event"
    },
    {
      "anonymous": false,
      "inputs": [
        {
          "indexed": false,
          "internalType": "uint256",
          "name": "productId",
          "type": "uint256"
        },
        {
          "indexed": false,
          "internalType": "uint256",
          "name": "newPrice",
          "type": "uint256"
        }
      ],
      "name": "ProductPriceChanged",
      "type": "event"
    },
    {
      "anonymous": false,
      "inputs": [
        {
          "indexed": false,
          "internalType": "uint256",
          "name": "productId",
          "type": "uint256"
        },
        {
          "indexed": false,
          "internalType": "uint256",
          "name": "amount",
          "type": "uint256"
        }
      ],
      "name": "ProductRefilled",
      "type": "event"
    },
    {
      "anonymous": false,
      "inputs": [
        {
          "indexed": false,
          "internalType": "uint256",
          "name": "productId",
          "type": "uint256"
        },
        {
          "indexed": false,
          "internalType": "uint256",
          "name": "amount",
          "type": "uint256"
        },
        {
          "indexed": false,
          "internalType": "uint256",
          "name": "value",
          "type": "uint256"
        }
      ],
      "name": "ProductRegistered",
      "type": "event"
    },
    {
      "anonymous": false,
      "inputs": [
        {
          "indexed": false,
          "internalType": "uint256[]",
          "name": "ids",
          "type": "uint256[]"
        },
        {
          "indexed": false,
          "internalType": "uint256[]",
          "name": "amounts",
          "type": "uint256[]"
        },
        {
          "indexed": false,
          "internalType": "address",
          "name": "buyer",
          "type": "address"
        }
      ],
      "name": "ProductsBought",
      "type": "event"
    },
    {
      "anonymous": false,
      "inputs": [
        {
          "indexed": true,
          "internalType": "bytes32",
          "name": "role",
          "type": "bytes32"
        },
        {
          "indexed": true,
          "internalType": "bytes32",
          "name": "previousAdminRole",
          "type": "bytes32"
        },
        {
          "indexed": true,
          "internalType": "bytes32",
          "name": "newAdminRole",
          "type": "bytes32"
        }
      ],
      "name": "RoleAdminChanged",
      "type": "event"
    },
    {
      "anonymous": false,
      "inputs": [
        {
          "indexed": true,
          "internalType": "bytes32",
          "name": "role",
          "type": "bytes32"
        },
        {
          "indexed": true,
          "internalType": "address",
          "name": "account",
          "type": "address"
        },
        {
          "indexed": true,
          "internalType": "address",
          "name": "sender",
          "type": "address"
        }
      ],
      "name": "RoleGranted",
      "type": "event"
    },
    {
      "anonymous": false,
      "inputs": [
        {
          "indexed": true,
          "internalType": "bytes32",
          "name": "role",
          "type": "bytes32"
        },
        {
          "indexed": true,
          "internalType": "address",
          "name": "account",
          "type": "address"
        },
        {
          "indexed": true,
          "internalType": "address",
          "name": "sender",
          "type": "address"
        }
      ],
      "name": "RoleRevoked",
      "type": "event"
    },
    {
      "anonymous": false,
      "inputs": [
        {
          "indexed": true,
          "internalType": "address",
          "name": "operator",
          "type": "address"
        },
        {
          "indexed": true,
          "internalType": "address",
          "name": "from",
          "type": "address"
        },
        {
          "indexed": true,
          "internalType": "address",
          "name": "to",
          "type": "address"
        },
        {
          "indexed": false,
          "internalType": "uint256[]",
          "name": "ids",
          "type": "uint256[]"
        },
        {
          "indexed": false,
          "internalType": "uint256[]",
          "name": "values",
          "type": "uint256[]"
        }
      ],
      "name": "TransferBatch",
      "type": "event"
    },
    {
      "anonymous": false,
      "inputs": [
        {
          "indexed": true,
          "internalType": "address",
          "name": "operator",
          "type": "address"
        },
        {
          "indexed": true,
          "internalType": "address",
          "name": "from",
          "type": "address"
        },
        {
          "indexed": true,
          "internalType": "address",
          "name": "to",
          "type": "address"
        },
        {
          "indexed": false,
          "internalType": "uint256",
          "name": "id",
          "type": "uint256"
        },
        {
          "indexed": false,
          "internalType": "uint256",
          "name": "value",
          "type": "uint256"
        }
      ],
      "name": "TransferSingle",
      "type": "event"
    },
    {
      "anonymous": false,
      "inputs": [
        {
          "indexed": false,
          "internalType": "string",
          "name": "value",
          "type": "string"
        },
        {
          "indexed": true,
          "internalType": "uint256",
          "name": "id",
          "type": "uint256"
        }
      ],
      "name": "URI",
      "type": "event"
    },
    {
      "inputs": [],
      "name": "DEFAULT_ADMIN_ROLE",
      "outputs": [
        {
          "internalType": "bytes32",
          "name": "",
          "type": "bytes32"
        }
      ],
      "stateMutability": "view",
      "type": "function"
    },
    {
      "inputs": [],
      "name": "MERCHANT_ROLE",
      "outputs": [
        {
          "internalType": "bytes32",
          "name": "",
          "type": "bytes32"
        }
      ],
      "stateMutability": "view",
      "type": "function"
    },
    {
      "inputs": [
        {
          "internalType": "address",
          "name": "account",
          "type": "address"
        },
        {
          "internalType": "uint256",
          "name": "id",
          "type": "uint256"
        }
      ],
      "name": "balanceOf",
      "outputs": [
        {
          "internalType": "uint256",
          "name": "",
          "type": "uint256"
        }
      ],
      "stateMutability": "view",
      "type": "function"
    },
    {
      "inputs": [
        {
          "internalType": "address[]",
          "name": "accounts",
          "type": "address[]"
        },
        {
          "internalType": "uint256[]",
          "name": "ids",
          "type": "uint256[]"
        }
      ],
      "name": "balanceOfBatch",
      "outputs": [
        {
          "internalType": "uint256[]",
          "name": "",
          "type": "uint256[]"
        }
      ],
      "stateMutability": "view",
      "type": "function"
    },
    {
      "inputs": [
        {
          "internalType": "uint256",
          "name": "productId",
          "type": "uint256"
        },
        {
          "internalType": "uint256",
          "name": "amount",
          "type": "uint256"
        }
      ],
      "name": "buyProduct",
      "outputs": [],
      "stateMutability": "payable",
      "type": "function"
    },
    {
      "inputs": [
        {
          "internalType": "uint256[]",
          "name": "productIds",
          "type": "uint256[]"
        },
        {
          "internalType": "uint256[]",
          "name": "amounts",
          "type": "uint256[]"
        }
      ],
      "name": "buyProductBatch",
      "outputs": [],
      "stateMutability": "payable",
      "type": "function"
    },
    {
      "inputs": [],
      "name": "getLatestData",
      "outputs": [
        {
          "internalType": "int256",
          "name": "",
          "type": "int256"
        }
      ],
      "stateMutability": "view",
      "type": "function"
    },
    {
      "inputs": [
        {
          "internalType": "bytes32",
          "name": "role",
          "type": "bytes32"
        }
      ],
      "name": "getRoleAdmin",
      "outputs": [
        {
          "internalType": "bytes32",
          "name": "",
          "type": "bytes32"
        }
      ],
      "stateMutability": "view",
      "type": "function"
    },
    {
      "inputs": [
        {
          "internalType": "bytes32",
          "name": "role",
          "type": "bytes32"
        },
        {
          "internalType": "address",
          "name": "account",
          "type": "address"
        }
      ],
      "name": "grantRole",
      "outputs": [],
      "stateMutability": "nonpayable",
      "type": "function"
    },
    {
      "inputs": [
        {
          "internalType": "bytes32",
          "name": "role",
          "type": "bytes32"
        },
        {
          "internalType": "address",
          "name": "account",
          "type": "address"
        }
      ],
      "name": "hasRole",
      "outputs": [
        {
          "internalType": "bool",
          "name": "",
          "type": "bool"
        }
      ],
      "stateMutability": "view",
      "type": "function"
    },
    {
      "inputs": [
        {
          "internalType": "address",
          "name": "account",
          "type": "address"
        },
        {
          "internalType": "address",
          "name": "operator",
          "type": "address"
        }
      ],
      "name": "isApprovedForAll",
      "outputs": [
        {
          "internalType": "bool",
          "name": "",
          "type": "bool"
        }
      ],
      "stateMutability": "view",
      "type": "function"
    },
    {
      "inputs": [
        {
          "internalType": "uint256",
          "name": "productId",
          "type": "uint256"
        },
        {
          "internalType": "uint256",
          "name": "newPrice",
          "type": "uint256"
        }
      ],
      "name": "merchantChangePrice",
      "outputs": [],
      "stateMutability": "nonpayable",
      "type": "function"
    },
    {
      "inputs": [],
      "name": "merchantWithdraw",
      "outputs": [],
      "stateMutability": "payable",
      "type": "function"
    },
    {
      "inputs": [],
      "name": "ownerWithdraw",
      "outputs": [],
      "stateMutability": "payable",
      "type": "function"
    },
    {
      "inputs": [
        {
          "internalType": "uint256",
          "name": "",
          "type": "uint256"
        }
      ],
      "name": "productInfo",
      "outputs": [
        {
          "internalType": "address",
          "name": "productOwner",
          "type": "address"
        },
        {
          "internalType": "uint256",
          "name": "priceInDollars",
          "type": "uint256"
        }
      ],
      "stateMutability": "view",
      "type": "function"
    },
    {
      "inputs": [
        {
          "internalType": "uint256",
          "name": "productId",
          "type": "uint256"
        },
        {
          "internalType": "uint256",
          "name": "amount",
          "type": "uint256"
        }
      ],
      "name": "refillProductAmount",
      "outputs": [],
      "stateMutability": "nonpayable",
      "type": "function"
    },
    {
      "inputs": [
        {
          "internalType": "uint256",
          "name": "amount",
          "type": "uint256"
        },
        {
          "internalType": "uint256",
          "name": "price",
          "type": "uint256"
        }
      ],
      "name": "registerProduct",
      "outputs": [],
      "stateMutability": "nonpayable",
      "type": "function"
    },
    {
      "inputs": [
        {
          "internalType": "bytes32",
          "name": "role",
          "type": "bytes32"
        },
        {
          "internalType": "address",
          "name": "account",
          "type": "address"
        }
      ],
      "name": "renounceRole",
      "outputs": [],
      "stateMutability": "nonpayable",
      "type": "function"
    },
    {
      "inputs": [
        {
          "internalType": "bytes32",
          "name": "role",
          "type": "bytes32"
        },
        {
          "internalType": "address",
          "name": "account",
          "type": "address"
        }
      ],
      "name": "revokeRole",
      "outputs": [],
      "stateMutability": "nonpayable",
      "type": "function"
    },
    {
      "inputs": [
        {
          "internalType": "address",
          "name": "from",
          "type": "address"
        },
        {
          "internalType": "address",
          "name": "to",
          "type": "address"
        },
        {
          "internalType": "uint256[]",
          "name": "ids",
          "type": "uint256[]"
        },
        {
          "internalType": "uint256[]",
          "name": "amounts",
          "type": "uint256[]"
        },
        {
          "internalType": "bytes",
          "name": "data",
          "type": "bytes"
        }
      ],
      "name": "safeBatchTransferFrom",
      "outputs": [],
      "stateMutability": "nonpayable",
      "type": "function"
    },
    {
      "inputs": [
        {
          "internalType": "address",
          "name": "from",
          "type": "address"
        },
        {
          "internalType": "address",
          "name": "to",
          "type": "address"
        },
        {
          "internalType": "uint256",
          "name": "id",
          "type": "uint256"
        },
        {
          "internalType": "uint256",
          "name": "amount",
          "type": "uint256"
        },
        {
          "internalType": "bytes",
          "name": "data",
          "type": "bytes"
        }
      ],
      "name": "safeTransferFrom",
      "outputs": [],
      "stateMutability": "nonpayable",
      "type": "function"
    },
    {
      "inputs": [
        {
          "internalType": "address",
          "name": "operator",
          "type": "address"
        },
        {
          "internalType": "bool",
          "name": "approved",
          "type": "bool"
        }
      ],
      "name": "setApprovalForAll",
      "outputs": [],
      "stateMutability": "nonpayable",
      "type": "function"
    },
    {
      "inputs": [
        {
          "internalType": "address",
          "name": "newAddress",
          "type": "address"
        }
      ],
      "name": "setDataFeedAddress",
      "outputs": [],
      "stateMutability": "nonpayable",
      "type": "function"
    },
    {
      "inputs": [
        {
          "internalType": "bytes4",
          "name": "interfaceId",
          "type": "bytes4"
        }
      ],
      "name": "supportsInterface",
      "outputs": [
        {
          "internalType": "bool",
          "name": "",
          "type": "bool"
        }
      ],
      "stateMutability": "view",
      "type": "function"
    },
    {
      "inputs": [
        {
          "internalType": "address",
          "name": "newOwner",
          "type": "address"
        }
      ],
      "name": "transferOwnership",
      "outputs": [],
      "stateMutability": "nonpayable",
      "type": "function"
    },
    {
      "inputs": [
        {
          "internalType": "uint256",
          "name": "",
          "type": "uint256"
        }
      ],
      "name": "uri",
      "outputs": [
        {
          "internalType": "string",
          "name": "",
          "type": "string"
        }
      ],
      "stateMutability": "view",
      "type": "function"
    }
  ],
  "bytecode": "0x60806040523480156200001157600080fd5b5060405162004ea738038062004ea7833981810160405281019062000037919062000321565b6040518060400160405280600481526020017f544f444f000000000000000000000000000000000000000000000000000000008152506200007e81620000ec60201b60201c565b50620000946000801b336200010160201b60201c565b80600660006101000a81548173ffffffffffffffffffffffffffffffffffffffff021916908373ffffffffffffffffffffffffffffffffffffffff1602179055506000600781905550816009819055505050620006bf565b8060029081620000fd9190620005d8565b5050565b6200011382826200011760201b60201c565b5050565b6200012982826200020960201b60201c565b620002055760016003600084815260200190815260200160002060000160008373ffffffffffffffffffffffffffffffffffffffff1673ffffffffffffffffffffffffffffffffffffffff16815260200190815260200160002060006101000a81548160ff021916908315150217905550620001aa6200027460201b60201c565b73ffffffffffffffffffffffffffffffffffffffff168173ffffffffffffffffffffffffffffffffffffffff16837f2f8788117e7eff1d82e926ec794901d17c78024a50270940304540a733656f0d60405160405180910390a45b5050565b60006003600084815260200190815260200160002060000160008373ffffffffffffffffffffffffffffffffffffffff1673ffffffffffffffffffffffffffffffffffffffff16815260200190815260200160002060009054906101000a900460ff16905092915050565b600033905090565b600080fd5b6000819050919050565b620002968162000281565b8114620002a257600080fd5b50565b600081519050620002b6816200028b565b92915050565b600073ffffffffffffffffffffffffffffffffffffffff82169050919050565b6000620002e982620002bc565b9050919050565b620002fb81620002dc565b81146200030757600080fd5b50565b6000815190506200031b81620002f0565b92915050565b600080604083850312156200033b576200033a6200027c565b5b60006200034b85828601620002a5565b92505060206200035e858286016200030a565b9150509250929050565b600081519050919050565b7f4e487b7100000000000000000000000000000000000000000000000000000000600052604160045260246000fd5b7f4e487b7100000000000000000000000000000000000000000000000000000000600052602260045260246000fd5b60006002820490506001821680620003ea57607f821691505b6020821081036200040057620003ff620003a2565b5b50919050565b60008190508160005260206000209050919050565b60006020601f8301049050919050565b600082821b905092915050565b6000600883026200046a7fffffffffffffffffffffffffffffffffffffffffffffffffffffffffffffffff826200042b565b6200047686836200042b565b95508019841693508086168417925050509392505050565b6000819050919050565b6000620004b9620004b3620004ad8462000281565b6200048e565b62000281565b9050919050565b6000819050919050565b620004d58362000498565b620004ed620004e482620004c0565b84845462000438565b825550505050565b600090565b62000504620004f5565b62000511818484620004ca565b505050565b5b8181101562000539576200052d600082620004fa565b60018101905062000517565b5050565b601f8211156200058857620005528162000406565b6200055d846200041b565b810160208510156200056d578190505b620005856200057c856200041b565b83018262000516565b50505b505050565b600082821c905092915050565b6000620005ad600019846008026200058d565b1980831691505092915050565b6000620005c883836200059a565b9150826002028217905092915050565b620005e38262000368565b67ffffffffffffffff811115620005ff57620005fe62000373565b5b6200060b8254620003d1565b620006188282856200053d565b600060209050601f8311600181146200065057600084156200063b578287015190505b620006478582620005ba565b865550620006b7565b601f198416620006608662000406565b60005b828110156200068a5784890151825560018201915060208501945060208101905062000663565b86831015620006aa5784890151620006a6601f8916826200059a565b8355505b6001600288020188555050505b505050505050565b6147d880620006cf6000396000f3fe6080604052600436106101805760003560e01c806353b62866116100d1578063b3d358391161008a578063dc61cfbd11610064578063dc61cfbd14610565578063e985e9c51461056f578063f242432a146105ac578063f2fde38b146105d557610180565b8063b3d35839146104d3578063bb119f6e146104fe578063d547741f1461053c57610180565b806353b62866146103d257806370473bbb146103ee57806391d1485414610417578063a217fddf14610454578063a22cb4651461047f578063ab757d61146104a857610180565b80632eb2c2d61161013e57806338c8480d1161011857806338c8480d146103395780634246f2a5146103625780634311de8f1461038b5780634e1273f41461039557610180565b80632eb2c2d6146102be5780632f2ff15d146102e757806336568abe1461031057610180565b8062fdd58e1461018557806301ffc9a7146101c25780630e89341c146101ff578063146bbcfc1461023c578063248a9ca31461025857806326ba789814610295575b600080fd5b34801561019157600080fd5b506101ac60048036038101906101a79190612ef3565b6105fe565b6040516101b99190612f42565b60405180910390f35b3480156101ce57600080fd5b506101e960048036038101906101e49190612fb5565b6106c6565b6040516101f69190612ffd565b60405180910390f35b34801561020b57600080fd5b5061022660048036038101906102219190613018565b6106d8565b60405161023391906130d5565b60405180910390f35b6102566004803603810190610251919061323f565b61076c565b005b34801561026457600080fd5b5061027f600480360381019061027a91906132ed565b610a30565b60405161028c9190613329565b60405180910390f35b3480156102a157600080fd5b506102bc60048036038101906102b79190613344565b610a50565b005b3480156102ca57600080fd5b506102e560048036038101906102e09190613426565b610b0e565b005b3480156102f357600080fd5b5061030e600480360381019061030991906134f5565b610baf565b005b34801561031c57600080fd5b50610337600480360381019061033291906134f5565b610bd0565b005b34801561034557600080fd5b50610360600480360381019061035b9190613535565b610c53565b005b34801561036e57600080fd5b5061038960048036038101906103849190613535565b610d46565b005b610393610e39565b005b3480156103a157600080fd5b506103bc60048036038101906103b79190613638565b610f48565b6040516103c9919061376e565b60405180910390f35b6103ec60048036038101906103e79190613535565b611061565b005b3480156103fa57600080fd5b5061041560048036038101906104109190613535565b611226565b005b34801561042357600080fd5b5061043e600480360381019061043991906134f5565b611370565b60405161044b9190612ffd565b60405180910390f35b34801561046057600080fd5b506104696113db565b6040516104769190613329565b60405180910390f35b34801561048b57600080fd5b506104a660048036038101906104a191906137bc565b6113e2565b005b3480156104b457600080fd5b506104bd6113f8565b6040516104ca9190613815565b60405180910390f35b3480156104df57600080fd5b506104e861140a565b6040516104f59190613329565b60405180910390f35b34801561050a57600080fd5b5061052560048036038101906105209190613018565b61142e565b60405161053392919061383f565b60405180910390f35b34801561054857600080fd5b50610563600480360381019061055e91906134f5565b611472565b005b61056d611493565b005b34801561057b57600080fd5b5061059660048036038101906105919190613868565b611616565b6040516105a39190612ffd565b60405180910390f35b3480156105b857600080fd5b506105d360048036038101906105ce91906138a8565b6116aa565b005b3480156105e157600080fd5b506105fc60048036038101906105f79190613344565b61174b565b005b60008073ffffffffffffffffffffffffffffffffffffffff168373ffffffffffffffffffffffffffffffffffffffff160361066e576040517f08c379a0000000000000000000000000000000000000000000000000000000008152600401610665906139b1565b60405180910390fd5b60008083815260200190815260200160002060008473ffffffffffffffffffffffffffffffffffffffff1673ffffffffffffffffffffffffffffffffffffffff16815260200190815260200160002054905092915050565b60006106d1826117e2565b9050919050565b6060600280546106e790613a00565b80601f016020809104026020016040519081016040528092919081815260200182805461071390613a00565b80156107605780601f1061073557610100808354040283529160200191610760565b820191906000526020600020905b81548152906001019060200180831161074357829003601f168201915b50505050509050919050565b80518251146107a7576040517f19e4cb1000000000000000000000000000000000000000000000000000000000815260040160405180910390fd5b6000806107b26113f8565b905060008451905060005b818110156109b45760008682815181106107da576107d9613a31565b5b60200260200101519050600754811061081f576040517f63fb0b6f00000000000000000000000000000000000000000000000000000000815260040160405180910390fd5b600086838151811061083457610833613a31565b5b602002602001015161085c60046000858152602001908152602001600020600101548761185c565b6108669190613a8f565b905080866108749190613ad1565b95506000612710600954836108899190613a8f565b6108939190613b34565b905080826108a19190613b65565b600560006004600087815260200190815260200160002060000160009054906101000a900473ffffffffffffffffffffffffffffffffffffffff1673ffffffffffffffffffffffffffffffffffffffff1673ffffffffffffffffffffffffffffffffffffffff16815260200190815260200160002060008282546109259190613ad1565b92505081905550806008600082825461093e9190613ad1565b925050819055506109a06004600085815260200190815260200160002060000160009054906101000a900473ffffffffffffffffffffffffffffffffffffffff16848a878151811061099357610992613a31565b5b60200260200101516118b9565b505050806109ad90613b99565b90506107bd565b503483146109ee576040517f94b5970f00000000000000000000000000000000000000000000000000000000815260040160405180910390fd5b7fbe28da7624bdff3d3399cad8bc52107954bd10606abe2fa340cf841c5aaded4a858533604051610a2193929190613be1565b60405180910390a15050505050565b600060036000838152602001908152602001600020600101549050919050565b610a5d6000801b33611370565b610a93576040517f344fd58600000000000000000000000000000000000000000000000000000000815260040160405180910390fd5b80600660006101000a81548173ffffffffffffffffffffffffffffffffffffffff021916908373ffffffffffffffffffffffffffffffffffffffff1602179055507f2f24c303e9fbc85d53c06095b02a0ef912b459123a6fa0c93920ac2b10c03a8c81604051610b039190613c26565b60405180910390a150565b610b16611aff565b73ffffffffffffffffffffffffffffffffffffffff168573ffffffffffffffffffffffffffffffffffffffff161480610b5c5750610b5b85610b56611aff565b611616565b5b610b9b576040517f08c379a0000000000000000000000000000000000000000000000000000000008152600401610b9290613cb3565b60405180910390fd5b610ba88585858585611b07565b5050505050565b610bb882610a30565b610bc181611e28565b610bcb8383611e3c565b505050565b610bd8611aff565b73ffffffffffffffffffffffffffffffffffffffff168173ffffffffffffffffffffffffffffffffffffffff1614610c45576040517f08c379a0000000000000000000000000000000000000000000000000000000008152600401610c3c90613d45565b60405180910390fd5b610c4f8282611f1d565b5050565b3373ffffffffffffffffffffffffffffffffffffffff166004600084815260200190815260200160002060000160009054906101000a900473ffffffffffffffffffffffffffffffffffffffff1673ffffffffffffffffffffffffffffffffffffffff1614610cee576040517f344fd58600000000000000000000000000000000000000000000000000000000815260040160405180910390fd5b8060046000848152602001908152602001600020600101819055507fd63cc1ed2f6abbff2bdc8aeb9f139df953e98c6aa57ca5bfe8e1876be9e890ec8282604051610d3a929190613d65565b60405180910390a15050565b3373ffffffffffffffffffffffffffffffffffffffff166004600084815260200190815260200160002060000160009054906101000a900473ffffffffffffffffffffffffffffffffffffffff1673ffffffffffffffffffffffffffffffffffffffff1614610de1576040517f344fd58600000000000000000000000000000000000000000000000000000000815260040160405180910390fd5b610dfc33838360405180602001604052806000815250611fff565b7fc5f9d4e79d6bdca5928eb2e6c4b5506bedfeb799d89b378bf2286a47d43ea45b8282604051610e2d929190613d65565b60405180910390a15050565b610e466000801b33611370565b610e7c576040517f344fd58600000000000000000000000000000000000000000000000000000000815260040160405180910390fd5b600060085403610eb8576040517f94b5970f00000000000000000000000000000000000000000000000000000000815260040160405180910390fd5b6000600854905060006008819055503373ffffffffffffffffffffffffffffffffffffffff166108fc829081150290604051600060405180830381858888f19350505050158015610f0d573d6000803e3d6000fd5b507f07c755342db70f3cd9b012463bcfdc68a1009115e2f9910e5562f81d73e5c22533604051610f3d9190613c26565b60405180910390a150565b60608151835114610f8e576040517f08c379a0000000000000000000000000000000000000000000000000000000008152600401610f8590613e00565b60405180910390fd5b6000835167ffffffffffffffff811115610fab57610faa6130fc565b5b604051908082528060200260200182016040528015610fd95781602001602082028036833780820191505090505b50905060005b845181101561105657611026858281518110610ffe57610ffd613a31565b5b602002602001015185838151811061101957611018613a31565b5b60200260200101516105fe565b82828151811061103957611038613a31565b5b6020026020010181815250508061104f90613b99565b9050610fdf565b508091505092915050565b348161108a60046000868152602001908152602001600020600101546110856113f8565b61185c565b6110949190613a8f565b146110cb576040517f94b5970f00000000000000000000000000000000000000000000000000000000815260040160405180910390fd5b6007548210611106576040517f63fb0b6f00000000000000000000000000000000000000000000000000000000815260040160405180910390fd5b60006004600084815260200190815260200160002060000160009054906101000a900473ffffffffffffffffffffffffffffffffffffffff1690506000612710600954346111549190613a8f565b61115e9190613b34565b9050803461116c9190613b65565b600560008473ffffffffffffffffffffffffffffffffffffffff1673ffffffffffffffffffffffffffffffffffffffff16815260200190815260200160002060008282546111ba9190613ad1565b9250508190555080600860008282546111d39190613ad1565b925050819055506111e58285856118b9565b7fa1d210a6d635a4ba4507ac34e3460465f1df316f3852bb899f3e4d66e0ce648c84843360405161121893929190613e20565b60405180910390a150505050565b6112507f3c4a2d89ed8b4cf4347fec87df1c38410f8fc538bf9fd64c10f2717bc0feff3633611370565b611286576040517f344fd58600000000000000000000000000000000000000000000000000000000815260040160405180910390fd5b3360046000600754815260200190815260200160002060000160006101000a81548173ffffffffffffffffffffffffffffffffffffffff021916908373ffffffffffffffffffffffffffffffffffffffff1602179055508060046000600754815260200190815260200160002060010181905550611317336007548460405180602001604052806000815250611fff565b7fc424a5faf15af508addca4af4cef47b22e200aa2833015c18a3a306780efe8c0600754838360405161134c93929190613e57565b60405180910390a16007600081548092919061136790613b99565b91905055505050565b60006003600084815260200190815260200160002060000160008373ffffffffffffffffffffffffffffffffffffffff1673ffffffffffffffffffffffffffffffffffffffff16815260200190815260200160002060009054906101000a900460ff16905092915050565b6000801b81565b6113f46113ed611aff565b83836121af565b5050565b6000806429e8d6080090508091505090565b7f3c4a2d89ed8b4cf4347fec87df1c38410f8fc538bf9fd64c10f2717bc0feff3681565b60046020528060005260406000206000915090508060000160009054906101000a900473ffffffffffffffffffffffffffffffffffffffff16908060010154905082565b61147b82610a30565b61148481611e28565b61148e8383611f1d565b505050565b6000600560003373ffffffffffffffffffffffffffffffffffffffff1673ffffffffffffffffffffffffffffffffffffffff168152602001908152602001600020540361150c576040517f94b5970f00000000000000000000000000000000000000000000000000000000815260040160405180910390fd5b6000600560003373ffffffffffffffffffffffffffffffffffffffff1673ffffffffffffffffffffffffffffffffffffffff1681526020019081526020016000205490506000600560003373ffffffffffffffffffffffffffffffffffffffff1673ffffffffffffffffffffffffffffffffffffffff168152602001908152602001600020819055503373ffffffffffffffffffffffffffffffffffffffff166108fc829081150290604051600060405180830381858888f193505050501580156115db573d6000803e3d6000fd5b507f07c755342db70f3cd9b012463bcfdc68a1009115e2f9910e5562f81d73e5c2253360405161160b9190613c26565b60405180910390a150565b6000600160008473ffffffffffffffffffffffffffffffffffffffff1673ffffffffffffffffffffffffffffffffffffffff16815260200190815260200160002060008373ffffffffffffffffffffffffffffffffffffffff1673ffffffffffffffffffffffffffffffffffffffff16815260200190815260200160002060009054906101000a900460ff16905092915050565b6116b2611aff565b73ffffffffffffffffffffffffffffffffffffffff168573ffffffffffffffffffffffffffffffffffffffff1614806116f857506116f7856116f2611aff565b611616565b5b611737576040517f08c379a000000000000000000000000000000000000000000000000000000000815260040161172e90613cb3565b60405180910390fd5b611744858585858561231b565b5050505050565b6117586000801b33611370565b61178e576040517f344fd58600000000000000000000000000000000000000000000000000000000815260040160405180910390fd5b61179b6000801b82610baf565b6117a86000801b33611472565b7fa2ea9883a321a3e97b8266c2b078bfeec6d50c711ed71f874a90d500ae2eaf36816040516117d79190613c26565b60405180910390a150565b60007f7965db0b000000000000000000000000000000000000000000000000000000007bffffffffffffffffffffffffffffffffffffffffffffffffffffffff1916827bffffffffffffffffffffffffffffffffffffffffffffffffffffffff191614806118555750611854826125b6565b5b9050919050565b6000806402540be400836118709190613a8f565b90506000670de0b6b3a7640000856118889190613a8f565b9050600082670de0b6b3a7640000836118a19190613a8f565b6118ab9190613b34565b905080935050505092915050565b600073ffffffffffffffffffffffffffffffffffffffff168373ffffffffffffffffffffffffffffffffffffffff1603611928576040517f08c379a000000000000000000000000000000000000000000000000000000000815260040161191f90613f00565b60405180910390fd5b6000611932611aff565b9050600061193f84612698565b9050600061194c84612698565b905061196c83876000858560405180602001604052806000815250612712565b600080600087815260200190815260200160002060008873ffffffffffffffffffffffffffffffffffffffff1673ffffffffffffffffffffffffffffffffffffffff16815260200190815260200160002054905084811015611a03576040517f08c379a00000000000000000000000000000000000000000000000000000000081526004016119fa90613f92565b60405180910390fd5b84810360008088815260200190815260200160002060008973ffffffffffffffffffffffffffffffffffffffff1673ffffffffffffffffffffffffffffffffffffffff16815260200190815260200160002081905550600073ffffffffffffffffffffffffffffffffffffffff168773ffffffffffffffffffffffffffffffffffffffff168573ffffffffffffffffffffffffffffffffffffffff167fc3d58168c5ae7397731d063d5bbf3d657854427343f4c083240f7aacaa2d0f628989604051611ad0929190613d65565b60405180910390a4611af68488600086866040518060200160405280600081525061271a565b50505050505050565b600033905090565b8151835114611b4b576040517f08c379a0000000000000000000000000000000000000000000000000000000008152600401611b4290614024565b60405180910390fd5b600073ffffffffffffffffffffffffffffffffffffffff168473ffffffffffffffffffffffffffffffffffffffff1603611bba576040517f08c379a0000000000000000000000000000000000000000000000000000000008152600401611bb1906140b6565b60405180910390fd5b6000611bc4611aff565b9050611bd4818787878787612712565b60005b8451811015611d85576000858281518110611bf557611bf4613a31565b5b602002602001015190506000858381518110611c1457611c13613a31565b5b60200260200101519050600080600084815260200190815260200160002060008b73ffffffffffffffffffffffffffffffffffffffff1673ffffffffffffffffffffffffffffffffffffffff16815260200190815260200160002054905081811015611cb5576040517f08c379a0000000000000000000000000000000000000000000000000000000008152600401611cac90614148565b60405180910390fd5b81810360008085815260200190815260200160002060008c73ffffffffffffffffffffffffffffffffffffffff1673ffffffffffffffffffffffffffffffffffffffff168152602001908152602001600020819055508160008085815260200190815260200160002060008b73ffffffffffffffffffffffffffffffffffffffff1673ffffffffffffffffffffffffffffffffffffffff1681526020019081526020016000206000828254611d6a9190613ad1565b9250508190555050505080611d7e90613b99565b9050611bd7565b508473ffffffffffffffffffffffffffffffffffffffff168673ffffffffffffffffffffffffffffffffffffffff168273ffffffffffffffffffffffffffffffffffffffff167f4a39dc06d4c0dbc64b70af90fd698a233a518aa5d07e595d983b8c0526c8f7fb8787604051611dfc929190614168565b60405180910390a4611e1281878787878761271a565b611e20818787878787612722565b505050505050565b611e3981611e34611aff565b6128f9565b50565b611e468282611370565b611f195760016003600084815260200190815260200160002060000160008373ffffffffffffffffffffffffffffffffffffffff1673ffffffffffffffffffffffffffffffffffffffff16815260200190815260200160002060006101000a81548160ff021916908315150217905550611ebe611aff565b73ffffffffffffffffffffffffffffffffffffffff168173ffffffffffffffffffffffffffffffffffffffff16837f2f8788117e7eff1d82e926ec794901d17c78024a50270940304540a733656f0d60405160405180910390a45b5050565b611f278282611370565b15611ffb5760006003600084815260200190815260200160002060000160008373ffffffffffffffffffffffffffffffffffffffff1673ffffffffffffffffffffffffffffffffffffffff16815260200190815260200160002060006101000a81548160ff021916908315150217905550611fa0611aff565b73ffffffffffffffffffffffffffffffffffffffff168173ffffffffffffffffffffffffffffffffffffffff16837ff6391f5c32d9c69d2a47ea670b442974b53935d1edc7fd64eb21e047a839171b60405160405180910390a45b5050565b600073ffffffffffffffffffffffffffffffffffffffff168473ffffffffffffffffffffffffffffffffffffffff160361206e576040517f08c379a000000000000000000000000000000000000000000000000000000000815260040161206590614211565b60405180910390fd5b6000612078611aff565b9050600061208585612698565b9050600061209285612698565b90506120a383600089858589612712565b8460008088815260200190815260200160002060008973ffffffffffffffffffffffffffffffffffffffff1673ffffffffffffffffffffffffffffffffffffffff16815260200190815260200160002060008282546121029190613ad1565b925050819055508673ffffffffffffffffffffffffffffffffffffffff16600073ffffffffffffffffffffffffffffffffffffffff168473ffffffffffffffffffffffffffffffffffffffff167fc3d58168c5ae7397731d063d5bbf3d657854427343f4c083240f7aacaa2d0f628989604051612180929190613d65565b60405180910390a46121978360008985858961271a565b6121a68360008989898961297e565b50505050505050565b8173ffffffffffffffffffffffffffffffffffffffff168373ffffffffffffffffffffffffffffffffffffffff160361221d576040517f08c379a0000000000000000000000000000000000000000000000000000000008152600401612214906142a3565b60405180910390fd5b80600160008573ffffffffffffffffffffffffffffffffffffffff1673ffffffffffffffffffffffffffffffffffffffff16815260200190815260200160002060008473ffffffffffffffffffffffffffffffffffffffff1673ffffffffffffffffffffffffffffffffffffffff16815260200190815260200160002060006101000a81548160ff0219169083151502179055508173ffffffffffffffffffffffffffffffffffffffff168373ffffffffffffffffffffffffffffffffffffffff167f17307eab39ab6107e8899845ad3d59bd9653f200f220920489ca2b5937696c318360405161230e9190612ffd565b60405180910390a3505050565b600073ffffffffffffffffffffffffffffffffffffffff168473ffffffffffffffffffffffffffffffffffffffff160361238a576040517f08c379a0000000000000000000000000000000000000000000000000000000008152600401612381906140b6565b60405180910390fd5b6000612394611aff565b905060006123a185612698565b905060006123ae85612698565b90506123be838989858589612712565b600080600088815260200190815260200160002060008a73ffffffffffffffffffffffffffffffffffffffff1673ffffffffffffffffffffffffffffffffffffffff16815260200190815260200160002054905085811015612455576040517f08c379a000000000000000000000000000000000000000000000000000000000815260040161244c90614148565b60405180910390fd5b85810360008089815260200190815260200160002060008b73ffffffffffffffffffffffffffffffffffffffff1673ffffffffffffffffffffffffffffffffffffffff168152602001908152602001600020819055508560008089815260200190815260200160002060008a73ffffffffffffffffffffffffffffffffffffffff1673ffffffffffffffffffffffffffffffffffffffff168152602001908152602001600020600082825461250a9190613ad1565b925050819055508773ffffffffffffffffffffffffffffffffffffffff168973ffffffffffffffffffffffffffffffffffffffff168573ffffffffffffffffffffffffffffffffffffffff167fc3d58168c5ae7397731d063d5bbf3d657854427343f4c083240f7aacaa2d0f628a8a604051612587929190613d65565b60405180910390a461259d848a8a86868a61271a565b6125ab848a8a8a8a8a61297e565b505050505050505050565b60007fd9b67a26000000000000000000000000000000000000000000000000000000007bffffffffffffffffffffffffffffffffffffffffffffffffffffffff1916827bffffffffffffffffffffffffffffffffffffffffffffffffffffffff1916148061268157507f0e89341c000000000000000000000000000000000000000000000000000000007bffffffffffffffffffffffffffffffffffffffffffffffffffffffff1916827bffffffffffffffffffffffffffffffffffffffffffffffffffffffff1916145b80612691575061269082612b55565b5b9050919050565b60606000600167ffffffffffffffff8111156126b7576126b66130fc565b5b6040519080825280602002602001820160405280156126e55781602001602082028036833780820191505090505b50905082816000815181106126fd576126fc613a31565b5b60200260200101818152505080915050919050565b505050505050565b505050505050565b6127418473ffffffffffffffffffffffffffffffffffffffff16612bbf565b156128f1578373ffffffffffffffffffffffffffffffffffffffff1663bc197c8187878686866040518663ffffffff1660e01b8152600401612787959493929190614318565b6020604051808303816000875af19250505080156127c357506040513d601f19601f820116820180604052508101906127c09190614395565b60015b612868576127cf6143cf565b806308c379a00361282b57506127e36143f1565b806127ee575061282d565b806040517f08c379a000000000000000000000000000000000000000000000000000000000815260040161282291906130d5565b60405180910390fd5b505b6040517f08c379a000000000000000000000000000000000000000000000000000000000815260040161285f906144f3565b60405180910390fd5b63bc197c8160e01b7bffffffffffffffffffffffffffffffffffffffffffffffffffffffff1916817bffffffffffffffffffffffffffffffffffffffffffffffffffffffff1916146128ef576040517f08c379a00000000000000000000000000000000000000000000000000000000081526004016128e690614585565b60405180910390fd5b505b505050505050565b6129038282611370565b61297a5761291081612be2565b61291e8360001c6020612c0f565b60405160200161292f929190614679565b6040516020818303038152906040526040517f08c379a000000000000000000000000000000000000000000000000000000000815260040161297191906130d5565b60405180910390fd5b5050565b61299d8473ffffffffffffffffffffffffffffffffffffffff16612bbf565b15612b4d578373ffffffffffffffffffffffffffffffffffffffff1663f23a6e6187878686866040518663ffffffff1660e01b81526004016129e39594939291906146b3565b6020604051808303816000875af1925050508015612a1f57506040513d601f19601f82011682018060405250810190612a1c9190614395565b60015b612ac457612a2b6143cf565b806308c379a003612a875750612a3f6143f1565b80612a4a5750612a89565b806040517f08c379a0000000000000000000000000000000000000000000000000000000008152600401612a7e91906130d5565b60405180910390fd5b505b6040517f08c379a0000000000000000000000000000000000000000000000000000000008152600401612abb906144f3565b60405180910390fd5b63f23a6e6160e01b7bffffffffffffffffffffffffffffffffffffffffffffffffffffffff1916817bffffffffffffffffffffffffffffffffffffffffffffffffffffffff191614612b4b576040517f08c379a0000000000000000000000000000000000000000000000000000000008152600401612b4290614585565b60405180910390fd5b505b505050505050565b60007f01ffc9a7000000000000000000000000000000000000000000000000000000007bffffffffffffffffffffffffffffffffffffffffffffffffffffffff1916827bffffffffffffffffffffffffffffffffffffffffffffffffffffffff1916149050919050565b6000808273ffffffffffffffffffffffffffffffffffffffff163b119050919050565b6060612c088273ffffffffffffffffffffffffffffffffffffffff16601460ff16612c0f565b9050919050565b606060006002836002612c229190613a8f565b612c2c9190613ad1565b67ffffffffffffffff811115612c4557612c446130fc565b5b6040519080825280601f01601f191660200182016040528015612c775781602001600182028036833780820191505090505b5090507f300000000000000000000000000000000000000000000000000000000000000081600081518110612caf57612cae613a31565b5b60200101907effffffffffffffffffffffffffffffffffffffffffffffffffffffffffffff1916908160001a9053507f780000000000000000000000000000000000000000000000000000000000000081600181518110612d1357612d12613a31565b5b60200101907effffffffffffffffffffffffffffffffffffffffffffffffffffffffffffff1916908160001a90535060006001846002612d539190613a8f565b612d5d9190613ad1565b90505b6001811115612dfd577f3031323334353637383961626364656600000000000000000000000000000000600f861660108110612d9f57612d9e613a31565b5b1a60f81b828281518110612db657612db5613a31565b5b60200101907effffffffffffffffffffffffffffffffffffffffffffffffffffffffffffff1916908160001a905350600485901c945080612df69061470d565b9050612d60565b5060008414612e41576040517f08c379a0000000000000000000000000000000000000000000000000000000008152600401612e3890614782565b60405180910390fd5b8091505092915050565b6000604051905090565b600080fd5b600080fd5b600073ffffffffffffffffffffffffffffffffffffffff82169050919050565b6000612e8a82612e5f565b9050919050565b612e9a81612e7f565b8114612ea557600080fd5b50565b600081359050612eb781612e91565b92915050565b6000819050919050565b612ed081612ebd565b8114612edb57600080fd5b50565b600081359050612eed81612ec7565b92915050565b60008060408385031215612f0a57612f09612e55565b5b6000612f1885828601612ea8565b9250506020612f2985828601612ede565b9150509250929050565b612f3c81612ebd565b82525050565b6000602082019050612f576000830184612f33565b92915050565b60007fffffffff0000000000000000000000000000000000000000000000000000000082169050919050565b612f9281612f5d565b8114612f9d57600080fd5b50565b600081359050612faf81612f89565b92915050565b600060208284031215612fcb57612fca612e55565b5b6000612fd984828501612fa0565b91505092915050565b60008115159050919050565b612ff781612fe2565b82525050565b60006020820190506130126000830184612fee565b92915050565b60006020828403121561302e5761302d612e55565b5b600061303c84828501612ede565b91505092915050565b600081519050919050565b600082825260208201905092915050565b60005b8381101561307f578082015181840152602081019050613064565b60008484015250505050565b6000601f19601f8301169050919050565b60006130a782613045565b6130b18185613050565b93506130c1818560208601613061565b6130ca8161308b565b840191505092915050565b600060208201905081810360008301526130ef818461309c565b905092915050565b600080fd5b7f4e487b7100000000000000000000000000000000000000000000000000000000600052604160045260246000fd5b6131348261308b565b810181811067ffffffffffffffff82111715613153576131526130fc565b5b80604052505050565b6000613166612e4b565b9050613172828261312b565b919050565b600067ffffffffffffffff821115613192576131916130fc565b5b602082029050602081019050919050565b600080fd5b60006131bb6131b684613177565b61315c565b905080838252602082019050602084028301858111156131de576131dd6131a3565b5b835b8181101561320757806131f38882612ede565b8452602084019350506020810190506131e0565b5050509392505050565b600082601f830112613226576132256130f7565b5b81356132368482602086016131a8565b91505092915050565b6000806040838503121561325657613255612e55565b5b600083013567ffffffffffffffff81111561327457613273612e5a565b5b61328085828601613211565b925050602083013567ffffffffffffffff8111156132a1576132a0612e5a565b5b6132ad85828601613211565b9150509250929050565b6000819050919050565b6132ca816132b7565b81146132d557600080fd5b50565b6000813590506132e7816132c1565b92915050565b60006020828403121561330357613302612e55565b5b6000613311848285016132d8565b91505092915050565b613323816132b7565b82525050565b600060208201905061333e600083018461331a565b92915050565b60006020828403121561335a57613359612e55565b5b600061336884828501612ea8565b91505092915050565b600080fd5b600067ffffffffffffffff821115613391576133906130fc565b5b61339a8261308b565b9050602081019050919050565b82818337600083830152505050565b60006133c96133c484613376565b61315c565b9050828152602081018484840111156133e5576133e4613371565b5b6133f08482856133a7565b509392505050565b600082601f83011261340d5761340c6130f7565b5b813561341d8482602086016133b6565b91505092915050565b600080600080600060a0868803121561344257613441612e55565b5b600061345088828901612ea8565b955050602061346188828901612ea8565b945050604086013567ffffffffffffffff81111561348257613481612e5a565b5b61348e88828901613211565b935050606086013567ffffffffffffffff8111156134af576134ae612e5a565b5b6134bb88828901613211565b925050608086013567ffffffffffffffff8111156134dc576134db612e5a565b5b6134e8888289016133f8565b9150509295509295909350565b6000806040838503121561350c5761350b612e55565b5b600061351a858286016132d8565b925050602061352b85828601612ea8565b9150509250929050565b6000806040838503121561354c5761354b612e55565b5b600061355a85828601612ede565b925050602061356b85828601612ede565b9150509250929050565b600067ffffffffffffffff8211156135905761358f6130fc565b5b602082029050602081019050919050565b60006135b46135af84613575565b61315c565b905080838252602082019050602084028301858111156135d7576135d66131a3565b5b835b8181101561360057806135ec8882612ea8565b8452602084019350506020810190506135d9565b5050509392505050565b600082601f83011261361f5761361e6130f7565b5b813561362f8482602086016135a1565b91505092915050565b6000806040838503121561364f5761364e612e55565b5b600083013567ffffffffffffffff81111561366d5761366c612e5a565b5b6136798582860161360a565b925050602083013567ffffffffffffffff81111561369a57613699612e5a565b5b6136a685828601613211565b9150509250929050565b600081519050919050565b600082825260208201905092915050565b6000819050602082019050919050565b6136e581612ebd565b82525050565b60006136f783836136dc565b60208301905092915050565b6000602082019050919050565b600061371b826136b0565b61372581856136bb565b9350613730836136cc565b8060005b8381101561376157815161374888826136eb565b975061375383613703565b925050600181019050613734565b5085935050505092915050565b600060208201905081810360008301526137888184613710565b905092915050565b61379981612fe2565b81146137a457600080fd5b50565b6000813590506137b681613790565b92915050565b600080604083850312156137d3576137d2612e55565b5b60006137e185828601612ea8565b92505060206137f2858286016137a7565b9150509250929050565b6000819050919050565b61380f816137fc565b82525050565b600060208201905061382a6000830184613806565b92915050565b61383981612e7f565b82525050565b60006040820190506138546000830185613830565b6138616020830184612f33565b9392505050565b6000806040838503121561387f5761387e612e55565b5b600061388d85828601612ea8565b925050602061389e85828601612ea8565b9150509250929050565b600080600080600060a086880312156138c4576138c3612e55565b5b60006138d288828901612ea8565b95505060206138e388828901612ea8565b94505060406138f488828901612ede565b935050606061390588828901612ede565b925050608086013567ffffffffffffffff81111561392657613925612e5a565b5b613932888289016133f8565b9150509295509295909350565b7f455243313135353a2061646472657373207a65726f206973206e6f742061207660008201527f616c6964206f776e657200000000000000000000000000000000000000000000602082015250565b600061399b602a83613050565b91506139a68261393f565b604082019050919050565b600060208201905081810360008301526139ca8161398e565b9050919050565b7f4e487b7100000000000000000000000000000000000000000000000000000000600052602260045260246000fd5b60006002820490506001821680613a1857607f821691505b602082108103613a2b57613a2a6139d1565b5b50919050565b7f4e487b7100000000000000000000000000000000000000000000000000000000600052603260045260246000fd5b7f4e487b7100000000000000000000000000000000000000000000000000000000600052601160045260246000fd5b6000613a9a82612ebd565b9150613aa583612ebd565b9250828202613ab381612ebd565b91508282048414831517613aca57613ac9613a60565b5b5092915050565b6000613adc82612ebd565b9150613ae783612ebd565b9250828201905080821115613aff57613afe613a60565b5b92915050565b7f4e487b7100000000000000000000000000000000000000000000000000000000600052601260045260246000fd5b6000613b3f82612ebd565b9150613b4a83612ebd565b925082613b5a57613b59613b05565b5b828204905092915050565b6000613b7082612ebd565b9150613b7b83612ebd565b9250828203905081811115613b9357613b92613a60565b5b92915050565b6000613ba482612ebd565b91507fffffffffffffffffffffffffffffffffffffffffffffffffffffffffffffffff8203613bd657613bd5613a60565b5b600182019050919050565b60006060820190508181036000830152613bfb8186613710565b90508181036020830152613c0f8185613710565b9050613c1e6040830184613830565b949350505050565b6000602082019050613c3b6000830184613830565b92915050565b7f455243313135353a2063616c6c6572206973206e6f7420746f6b656e206f776e60008201527f6572206f7220617070726f766564000000000000000000000000000000000000602082015250565b6000613c9d602e83613050565b9150613ca882613c41565b604082019050919050565b60006020820190508181036000830152613ccc81613c90565b9050919050565b7f416363657373436f6e74726f6c3a2063616e206f6e6c792072656e6f756e636560008201527f20726f6c657320666f722073656c660000000000000000000000000000000000602082015250565b6000613d2f602f83613050565b9150613d3a82613cd3565b604082019050919050565b60006020820190508181036000830152613d5e81613d22565b9050919050565b6000604082019050613d7a6000830185612f33565b613d876020830184612f33565b9392505050565b7f455243313135353a206163636f756e747320616e6420696473206c656e67746860008201527f206d69736d617463680000000000000000000000000000000000000000000000602082015250565b6000613dea602983613050565b9150613df582613d8e565b604082019050919050565b60006020820190508181036000830152613e1981613ddd565b9050919050565b6000606082019050613e356000830186612f33565b613e426020830185612f33565b613e4f6040830184613830565b949350505050565b6000606082019050613e6c6000830186612f33565b613e796020830185612f33565b613e866040830184612f33565b949350505050565b7f455243313135353a206275726e2066726f6d20746865207a65726f206164647260008201527f6573730000000000000000000000000000000000000000000000000000000000602082015250565b6000613eea602383613050565b9150613ef582613e8e565b604082019050919050565b60006020820190508181036000830152613f1981613edd565b9050919050565b7f455243313135353a206275726e20616d6f756e7420657863656564732062616c60008201527f616e636500000000000000000000000000000000000000000000000000000000602082015250565b6000613f7c602483613050565b9150613f8782613f20565b604082019050919050565b60006020820190508181036000830152613fab81613f6f565b9050919050565b7f455243313135353a2069647320616e6420616d6f756e7473206c656e6774682060008201527f6d69736d61746368000000000000000000000000000000000000000000000000602082015250565b600061400e602883613050565b915061401982613fb2565b604082019050919050565b6000602082019050818103600083015261403d81614001565b9050919050565b7f455243313135353a207472616e7366657220746f20746865207a65726f20616460008201527f6472657373000000000000000000000000000000000000000000000000000000602082015250565b60006140a0602583613050565b91506140ab82614044565b604082019050919050565b600060208201905081810360008301526140cf81614093565b9050919050565b7f455243313135353a20696e73756666696369656e742062616c616e636520666f60008201527f72207472616e7366657200000000000000000000000000000000000000000000602082015250565b6000614132602a83613050565b915061413d826140d6565b604082019050919050565b6000602082019050818103600083015261416181614125565b9050919050565b600060408201905081810360008301526141828185613710565b905081810360208301526141968184613710565b90509392505050565b7f455243313135353a206d696e7420746f20746865207a65726f2061646472657360008201527f7300000000000000000000000000000000000000000000000000000000000000602082015250565b60006141fb602183613050565b91506142068261419f565b604082019050919050565b6000602082019050818103600083015261422a816141ee565b9050919050565b7f455243313135353a2073657474696e6720617070726f76616c2073746174757360008201527f20666f722073656c660000000000000000000000000000000000000000000000602082015250565b600061428d602983613050565b915061429882614231565b604082019050919050565b600060208201905081810360008301526142bc81614280565b9050919050565b600081519050919050565b600082825260208201905092915050565b60006142ea826142c3565b6142f481856142ce565b9350614304818560208601613061565b61430d8161308b565b840191505092915050565b600060a08201905061432d6000830188613830565b61433a6020830187613830565b818103604083015261434c8186613710565b905081810360608301526143608185613710565b9050818103608083015261437481846142df565b90509695505050505050565b60008151905061438f81612f89565b92915050565b6000602082840312156143ab576143aa612e55565b5b60006143b984828501614380565b91505092915050565b60008160e01c9050919050565b600060033d11156143ee5760046000803e6143eb6000516143c2565b90505b90565b600060443d1061447e57614403612e4b565b60043d036004823e80513d602482011167ffffffffffffffff8211171561442b57505061447e565b808201805167ffffffffffffffff811115614449575050505061447e565b80602083010160043d03850181111561446657505050505061447e565b6144758260200185018661312b565b82955050505050505b90565b7f455243313135353a207472616e7366657220746f206e6f6e2d4552433131353560008201527f526563656976657220696d706c656d656e746572000000000000000000000000602082015250565b60006144dd603483613050565b91506144e882614481565b604082019050919050565b6000602082019050818103600083015261450c816144d0565b9050919050565b7f455243313135353a204552433131353552656365697665722072656a6563746560008201527f6420746f6b656e73000000000000000000000000000000000000000000000000602082015250565b600061456f602883613050565b915061457a82614513565b604082019050919050565b6000602082019050818103600083015261459e81614562565b9050919050565b600081905092915050565b7f416363657373436f6e74726f6c3a206163636f756e7420000000000000000000600082015250565b60006145e66017836145a5565b91506145f1826145b0565b601782019050919050565b600061460782613045565b61461181856145a5565b9350614621818560208601613061565b80840191505092915050565b7f206973206d697373696e6720726f6c6520000000000000000000000000000000600082015250565b60006146636011836145a5565b915061466e8261462d565b601182019050919050565b6000614684826145d9565b915061469082856145fc565b915061469b82614656565b91506146a782846145fc565b91508190509392505050565b600060a0820190506146c86000830188613830565b6146d56020830187613830565b6146e26040830186612f33565b6146ef6060830185612f33565b818103608083015261470181846142df565b90509695505050505050565b600061471882612ebd565b91506000820361472b5761472a613a60565b5b600182039050919050565b7f537472696e67733a20686578206c656e67746820696e73756666696369656e74600082015250565b600061476c602083613050565b915061477782614736565b602082019050919050565b6000602082019050818103600083015261479b8161475f565b905091905056fea26469706673582212203f7079393cb8e6a73cce43235d2a61fee3990f99798478fd00a40d71d168562564736f6c63430008120033",
  "linkReferences": {},
  "deployedLinkReferences": {}
}